:1000000001308A0068290000CD37F4377210653757
:10001000E3326E3269326F00C734F237A0302036D7
:100020006110E432F23263346100CD37F43772107C
:100030006537E3326E3269326F00C734F237A03071
:1000400020366110693DF13AE932723261008C2646
:100050006F3A6F39A030F030E730E43700002C30D1
:10006000840083130008031943280130F800F701C6
:10007000F70B3828F80B37284A30F700F70B3E28E3
:100080004128800B35280800320EF039F7000F3078
:10009000060577048600000006144E2806100800A6
:1000A0000608F700060E0F39F80008008316061040
:1000B00086100611831286100F3083160605F0385D
:1000C00086008312061500000614000050207808F0
:1000D000B200061000000614000050207808B1009D
:1000E00006100F308316060586008312320EF700C5
:1000F000F030F70577083104F8007808B100B11B3B
:100100005C282F1C86102F18861400000611000092
:100110000610300EB1000F30B1053108B200442096
:1001200030080F39B100B200442008002830A80080
:100130000C30A9000130AA000630AB000610861072
:1001400006110F308316060586000610861006116C
:100150000F308312AC002F200130A7002708033C8A
:10016000031CBA280330B20044200530AC002F2015
:10017000A70AAE280230B20044200530AC002F2080
:10018000A7012708033C031CD12828302707840037
:1001900083130008AC00AF012C08B0005620A70A5A
:1001A000C1288A110A1275292C0BD728DA28403069
:1001B000AD00DB28AD0101302B02AD072D088038E2
:1001C000AE00AF012E08B000562008002A08073AFA
:1001D0000319F4280B3A0319F928063A03190129DF
:1001E000023A031907290C290130AB00AC00D420D6
:1001F0001129AF010130B00056200230AC002F2091
:1002000011290130AB000230AC00D4201129AF011C
:100210001030B000562011290130AF002A08B0007C
:10022000562008000B08A7008B13831603178C17A2
:100230000C140000000083120313A71B8B17031775
:100240000C087F39031966290313A70003170D084B
:100250000313A80003170F080313A9002708AA0017
:10026000E620280803178D000313290803178F00C1
:1002700003130B08AA008B13831603178C170C1497
:100280000000000083120313AA1B8B1703170C0D29
:100290000E0D7F39031966290313A70003170D08F4
:1002A0000313A80003170F080313A9002708AA00C7
:1002B000E620280803178D000313290803178F0071
:1002C0008D0A03198F0A0313122903170313080059
:1002D00003081F398300FF30A00083161F149F14EA
:1002E0001F159F118313831296283F3083168500B4
:1002F000003086000A308312A1000930A2000530C8
:10030000A3000630A400831605148312051CBB2924
:100310000130AB00AC00D420043003178D00003056
:100320008F00031312210130AB000230AC00D42047
:100330000C3003178D0000308F0003131221A5012C
:100340002508033C031CBA292130250784008313A8
:100350000008A7000030A000831687018312270839
:1003600087000230A700FA30AC002F20A70BB3297A
:10037000A50AA029032A831685148312851CF52952
:100380000130AB00AC00D420153003178D000030D5
:100390008F00031312210130AB000230AC00D420D7
:1003A0001D3003178D0000308F000313122104301D
:1003B000A6002608003C0318F42901302602213E3D
:1003C000840083130008A7000030A0008316870173
:1003D0008312270887000230A700FA30AC002F20D4
:1003E000A70BED29A603D929032A0130AB00AC00E5
:1003F000D420273003178D0000308F000313122103
:0A040000C830AC002F2083296300F0
:02400E00313F40
:00000001FF
;PIC16F876
;CRC=5243  CREATED="10-mar.-21 00:00"
